:100000000EC01DC01CC01BC01AC01AC018C017C02B
:1000100016C015C014C013C012C011C010C01124E6
:100020001FBECFE5D2E0DEBFCDBF20E0A0E6B0E04E
:1000300001C01D92A136B207E1F71DD029C0E0CF63
:100040001F920F920FB60F9211248F938091600030
:100050008F5F809360008F910F900FBE0F901F9065
:100060001895B89A83E083BF82E089BF12BE789466
:10007000109260000895F5DF91E080916000823178
:10008000E0F388B3892788BB1092600012BEF5CFD9
:04009000F894FFCF12
:00000001FF
